:10000000020E2A008F828E83E0540100000070F8F7
:100010002278FFE4F6D8FD020E88EC4D6011E84925
:100020007017ED33EC3304600DE4FCFFFEFD22E9B4
:1000300033E8330470F80202E31202AE5804600998
:10004000E4CC248150062850090202ED2840030226
:1000500002EAC0E0EB4A7044B98006D0E0FB02023D
:10006000D9EF4E701CBD8008EBFFEAFEE9FD80EB86
:10007000E98DF0A4FEE5F0020103E9CDF9EAFEEB1B
:10008000FFEF89F0A4FCE5F0CE89F0A42EFFE43563
:10009000F0CD89F0A42DFEE435F08067EF4E7005B9
:1000A000BD80D780C3EF8BF0A4ACF0EE8BF0A42C16
:1000B000FCE435F0F8EF8AF0A42CE5F038FCE433EA
:1000C000CB8DF0A42CFCE5F03BF8EE8AF0A42CFCE0
:1000D000E5F038F8E433CF89F0A42CFCE5F038CF14
:1000E0003400CE89F0A42FFFE5F03EFEE433C98D45
:1000F000F0A42EFEE5F039CD8AF0A42FFFE5F03E06
:10010000FEE43DFD33D0E0FB50070BBB000F0202C5
:10011000EDEC2CFCEF33FFEE33FEED33FD0202C5B8
:100120000202EDEC5D046005E8590470030202E38D
:100130001202AE580460F6EC4860F2EC7004FDFE6A
:10014000FF22C860DB2481C85009C39860025006B2
:100150000202EA9850CAF582E9294B4A7005AB823F
:100160000202D975F0007C1A7880C3EF9BEE9AEDFD
:1001700099400DC3EF9BFFEE9AFEED99FDE842F02A
:10018000DC23ACF0D0E0FFD0E0FED0E0FDAB82207D
:10019000E7101BEB60BAEC2CFCEF33FFEE33FEED07
:1001A00033FD0202C5E803F830E705C0F075F00042
:1001B000EF2FFFEE33FEED33FD40B830E7C280AAEB
:1001C00074F8CC6480CCC86480C8F58204604FC3E6
:1001D000EB9FF5F0EA9E42F0E99D42F0E89C45F085
:1001E000603C501DE5825FFFE582D313CB5BCBF40F
:1001F0002B5582FB50280ABA002409B90020088038
:100200001DE5825BFBE582D313CF5FCFF4C3132FD1
:100210005582FF50090EBE00050DBD00010CC3EB59
:100220009FF5F0EA9E42F0E99D42F0E89C45F060BF
:1002300007CC4820E701B3EC2275F020800E75F062
:1002400010800575F0087D007E007F003392D53068
:10025000D50312047EEC334010EF33FFEE33FEED96
:1002600033FDEC33FCD5F0ED22E5F0247EA2D5136E
:10027000CC92E7CDCEFF22EDD2E7CD33EC3392D551
:1002800024814006E4FFFEFDFC22FCE4CFCECDCC71
:1002900024E0501174FF80EDC3CC13CCCD13CDCE30
:1002A00013CECF13CF0470F030D5DE02047EE9D236
:1002B000E7C933E833F892D5EDD2E7CD33EC33FC20
:1002C0005002B2D522EC30E7100FBF000C0EBE007A
:1002D000080DBD00040BEB6014A2D5EB13FCED92EE
:1002E000E7FD2274FFFCFDFEFF22E480F8A2D57436
:1002F000FF13FC7D80E480EFBB010689828A83E0E6
:10030000225002E722BBFE02E32289828A83E49321
:1003100022BB010689828A83F0225002F722BBFEAB
:1003200001F322C5F0F8A3E028F0C5F0F8E5821546
:100330008270021583E038F022EF2BFFEE3AFEEDDB
:1003400039FDEC38FC22C3EF9BFFEE9AFEED99FDE0
:10035000EC98FC22E88FF0A4CC8BF0A42CFCE98E66
:10036000F0A42CFC8AF0EDA42CFCEA8EF0A4CDA81D
:10037000F08BF0A42DCC3825F0FDE98FF0A42CCD26
:1003800035F0FCEB8EF0A4FEA9F0EB8FF0A4CFC506
:10039000F02ECD39FEE43CFCEAA42DCE35F0FDE490
:1003A0003CFC2275F008758200EF2FFFEE33FECD86
:1003B00033CDCC33CCC58233C5829BED9AEC99E525
:1003C0008298400CF582EE9BFEED9AFDEC99FC0FB5
:1003D000D5F0D6E4CEFBE4CDFAE4CCF9A88222B87D
:1003E00000C1B90059BA002DEC8BF084CFCECDFC02
:1003F000E5F0CBF97818EF2FFFEE33FEED33FDEC8F
:1004000033FCEB33FB10D703994004EB99FB0FD877
:10041000E5E4F9FA227818EF2FFFEE33FEED33FD15
:10042000EC33FCC933C910D7059BE99A4007EC9B14
:10043000FCE99AF90FD8E0E4C9FAE4CCFB2275F0A4
:1004400010EF2FFFEE33FEED33FDCC33CCC833C8B5
:1004500010D7079BEC9AE899400AED9BFDEC9AFCBB
:10046000E899F80FD5F0DAE4CDFBE4CCFAE4C8F96A
:1004700022EF4BFFEE4AFEED49FDEC48FC22C3E4BF
:100480009FFFE49EFEE49DFDE49CFC22E8600FECEF
:10049000C313FCED13FDEE13FEEF13FFD8F122E8BA
:1004A000600FEFC333FFEE33FEED33FDEC33FCD8CA
:1004B000F122E0FCA3E0FDA3E0FEA3E0FF22E0F8D0
:1004C000A3E0F9A3E0FAA3E0FB22ECF0A3EDF0A394
:1004D000EEF0A3EFF022E0FBA3E0FAA3E0F922EBB9
:1004E000F0A3EAF0A3E9F022E493FB740193FA7419
:1004F0000293F922D083D082F8E4937012740193AE
:10050000700DA3A393F8740193F5828883E4737448
:1005100002936860EFA3A3A380DFE50C2582F58238
:10052000E50B3583F583B50B0485820C2210AF06ED
:1005300085820CF50B2285820CF50BD2AF22EC8E56
:10054000F0A4CCC5F0CCCDF8EFA4CEC5F02DFDE4E1
:100550003CFCE8A42EC8C5F03DFDE43CFCEFA4FF44
:10056000E5F028FEE43DFDE43CFC22E709F608DF67
:10057000FA8046E709F208DFFA803E88828C83E73A
:1005800009F0A3DFFA8032E309F608DFFA806EE3B0
:1005900009F208DFFA806688828C83E309F0A3DF22
:1005A000FA805A89828A83E0A3F608DFFA804E89AE
:1005B000828A83E0A3F208DFFA804280D280FA8048
:1005C000C680D4805580F28029801080A680EA8081
:1005D0009A80A880DA80E280CA802988848C858904
:1005E000828A83E493A30586F0A30586DFF5DEF314
:1005F000800B89828A83E493A3F608DFF9ECFAA9D9
:10060000F0EDFB2288848C8589828A83E0A30586AD
:10061000F0A30586DFF6DEF480E389828A83E49323
:10062000A3F208DFF980D688F0EF60010E4E60CDAE
:1006300088F0ED2402B4040050C3F582EB2402B428
:10064000040050B923234582239005BB73900046D4
:10065000EFF0900047ECF0A3EDF0900049EAF0A332
:10066000EBF090004CE0FFEFD39400500302084CF5
:1006700090004CE0FFEFD39401400302084C90003F
:1006800046E0FFEF1204F4069A01069A0406C70733
:1006900006F208071D0A0000074890004BE0FFEF34
:1006A000D3940F40117B0C7A017918121AF2900042
:1006B0004DEFF002074D7B0C7A01791C121AF29073
:1006C000004DEFF002074D90004BE0FFEFD3940F89
:1006D00040107B0C7A017919121AF290004DEFF05C
:1006E000806B7B0C7A01791D121AF290004DEFF0AD
:1006F000805B90004BE0FFEFD3940F40107B0C7AAF
:1007000001791A121AF290004DEFF080407B0C7ABA
:1007100001791E121AF290004DEFF0803090004BDC
:10072000E0FFEFD3940F40107B0C7A01791B121A73
:10073000F290004DEFF080157B0C7A01791F121AB0
:10074000F290004DEFF0800590004DE4F090004DE8
:10075000E0FFEF3395E0FEFDFC7B207A0079007826
:1007600000120354A804A905AA06AB07900047E0AD
:10077000FEA3E0FFE4FCFD12033990004E1204CA10
:1007800090004E1204B2AB07AA06A905A804A8045B
:10079000A905AA06AB07900049E0FEA3E0FFE4FC30
:1007A000FD1203549000541204CA7B007A80790031
:1007B00078009000541204B21203DF900052EEF061
:1007C000A3EFF090004BE0FFEFC3940E5047900072
:1007D00052E0FEA3E0FF90004BE0FDC3740E9DFDD0
:1007E000EFA805088005CEC313CE13D8F9FF9000FB
:1007F00052EEF0A3EFF090004BE0FFEF04FF90000B
:100800004CE0FEEE75F003A42458F582E43400F5C4
:1008100083EFF0801690004CE0FFEF75F003A42406
:1008200058F582E43400F583740FF0900052E0FE36
:10083000A3E0FF90004CE0FDED75F003A42456F515
:1008400082E43400F583EEF0A3EFF0227F00121A69
:100850006C22900047EEF0A3EFF0900049EDF0120B
:100860001B1490004BEFF0121B0A90004CEEF0A30B
:10087000EFF090004CE0FEA3E0FF900047E0FCA307
:10088000E0FDED6F7002EC6E70030209E69043A28A
:10089000E0FFEF5401FF90004AEFF090004BE0FFC3
:1008A000EF705E90004CE0FEA3E0FFEF4E600C9016
:1008B0000047E0FEA3E0FFEF4E704690004CE0FEE4
:1008C000A3E0FFEF4E701D7B027A407980900047D5
:1008D000E0FCA3E0FD121AD9904082E0FFEF54BF84
:1008E000FFEFF022904082E0FFEF4440FFEFF07B0B
:1008F000027A407980900047E0FCA3E0FD121AD90B
:100900002290004AE0FFEF606C904001E4F09040DC
:10091000107401F0904014E4F0904008E0FFEF54B0
:100920007FFFEFF0904082E0FFEF5408FF7E00EF82
:100930004E600C900047E0FEA3E0FFEF4E70367B68
:10094000027A40790290004CE0FCA3E0FD121AD933
:100950009040017407F0904001E0FFEF5401FF7EEA
:1009600000EF4E70F19043A2E0FFEF54FEFFEFF076
:10097000904001E4F09043A2E0FFEF5401FF7E00BD
:10098000EF4E603A7B027A407902900047E0FCA388
:10099000E0FD121AD9900049E0FFEF60047F028069
:1009A000027F00EF4401FF904001EFF0904001E032
:1009B000FFEF5401FF7E00EF4E602B80EF227B02A1
:1009C0007A407980900047E0FCA3E0FD121AD990AC
:1009D00043A2C083C082E0FF90004AE0FEEF4EFFDA
:1009E000D082D083EFF022900047EEF0A3EFF0909A
:1009F0000049EDF0121B2890004BEFF0121B1E90E7
:100A0000004CEEF0A3EFF090004CE0FEA3E0FF906E
:100A10000047E0FCA3E0FDED6F7002EC6E70030296
:100A20000B7B9043A1E0FFEF5401FF90004AEFF0F1
:100A300090004BE0FFEF705E90004CE0FEA3E0FF03
:100A4000EF4E600C900047E0FEA3E0FFEF4E7046D3
:100A500090004CE0FEA3E0FFEF4E701D7B027A4158
:100A60007900900047E0FCA3E0FD121AD990410202
:100A7000E0FFEF54BFFFEFF022904102E0FFEF44B0
:100A800040FFEFF07B027A417900900047E0FCA341
:100A9000E0FD121AD92290004AE0FFEF606C90400E
:100AA00001E4F09040147401F0904010E4F09040A4
:100AB00008E0FFEF547FFFEFF0904102E0FFEF54BA
:100AC00008FF7E00EF4E600C900047E0FEA3E0FFC1
:100AD000EF4E70367B027A40790290004CE0FCA326
:100AE000E0FD121AD99040017407F0904001E0FF38
:100AF000EF5401FF7E00EF4E70F19043A1E0FFEF55
:100B000054FEFFEFF0904001E4F09043A1E0FFEFCE
:100B10005401FF7E00EF4E603A7B027A40790290EA
:100B20000047E0FCA3E0FD121AD9900049E0FFEF76
:100B300060047F0280027F00EF4401FF904001EFDC
:100B4000F0904001E0FFEF5401FF7E00EF4E602B7C
:100B500080EF227B027A417900900047E0FCA3E01D
:100B6000FD121AD99043A1C083C082E0FF90004AD1
:100B7000E0FEEF4EFFD082D083EFF0227B007A467A
:100B800079E8121AF2EF4405FD7B007A4679E81203
:100B90001AFE750A00E50AC39409503AAF0AEF75C8
:100BA000F005A4244DF582E4341BF583AF82AE83B7
:100BB0008E088F09AE08AF098F828E831204E8AECB
:100BC00008AF098F828E83740393FC740493FD1223
:100BD00019B8050A80BF7B087A0079001217FD90CA
:100BE0005883740AF07B017A507903121AF2EF44A9
:100BF00002FD7B017A507903121AFE7B017A50794B
:100C000013121AF2EF4402FD7B017A507913121A83
:100C1000FE9043A0E0FFEF4440FF9043A0EFF09030
:100C200043C2E0FFEF4410FF9043C2EFF07B087A2D
:100C300000797CC003C002C0017B007A5179029028
:100C4000004F1204DFD001D002D0037F087E0012D3
:100C5000173B7B087A007984C003C002C0017B0087
:100C60007A51792290004F1204DFD001D002D003D4
:100C70007F087E0012173B9044F47401F0904322E9
:100C8000E0FFEF4408FF904322EFF09046ECE0FFD6
:100C9000EFC394055006904689743AF0904800746A
:100CA000F1F0120CDF90480074B1F01212697B0071
:100CB0007A4379A0C003C002C0017B007A4379B0B7
:100CC00090004F1204DFD001D002D0037F0E7E00CF
:100CD00012173B9043B0E0FFEF54FDFFEFF0227B93
:100CE000007A4079807D007C00121AD7904082748F
:100CF00050F07B087A00798CC003C002C0017B00F1
:100D00007A41790090004F1204DFD001D002D00365
:100D10007F047E0012173B9043007402F090400065
:100D20007408F09042007403F07B0C7A0179081289
:100D30001AF29046A1EFF07B007A4279227D087C7E
:100D400000121AD77B007A4279207D517C12121A48
:100D5000D7900049E4F07F197E007D007C00900070
:100D6000451204CA9000451204B2D3EF9400EE94E9
:100D700000404E900049E0FFEF640360449042253C
:100D8000E0FFEF5401FF7E00900049E0FEEE25E019
:100D9000FEEE4FFFEF5403FF900049EFF07FE07E3F
:100DA000017D007C001217009000451204B27BFF09
:100DB0007AFF79FF78FF1203399000451204CA8048
:100DC000A39000451204B2EF4E70057F03121A96ED
:100DD0007B007A4079047D007C01121AD790400490
:100DE0007407F0904006E4F09040087448F090409A
:100DF00004E4F09040017402F090400B7404F09011
:100E000043A2E0FFEF4401FF9043A2EFF09043A123
:100E1000E0FFEF4401FF9043A1EFF09043A0E0FF1B
:100E2000EF4480FF9043A0EFF022759300780075A7
:100E300083467582E8E04401F0009046ECE0F990CA
:100E400046FAE0FAB903225420B40012B8001AEAB4
:100E5000901FFFF07401901FFEF09046F6F0901F77
:100E6000FEE06005901FFFE0FA90480074C0F07546
:100E7000810C90000078007920E4F0A3D8FCD9FA26
:100E8000EA900072F0020011750B1F750CFD120B39
:100E90007C020ECF021448E493A3F8E493A340032A
:100EA000F68001F208DFF48029E493A3F8540724C4
:100EB0000CC8C333C4540F4420C8834004F4568084
:100EC0000146F6DFE4800B01020408102040809008
:100ED0001592E47E019360BCA3FF543F30E50954B2
:100EE0001FFEE493A360010ECF54C025E060A8402C
:100EF000B8E493A3FAE493A3F8E493A3C8C582C823
:100F0000CAC583CAF0A3C8C582C8CAC583CADFE9F7
:100F1000DEE780BE900046EFF0900067E4F09000BE
:100F200046E0FFEF64016003020FF7904E00743457
:100F3000F0904E027404F0904E037406F0904E044C
:100F4000E4F0904E05E4F0904E06740FF0904E08D9
:100F5000E4F0904E09E4F0904E0AE4F0904E1474E0
:100F600001F09058847414F09058857409F09058EA
:100F700086740AF0905887E4F090588A7411F090C3
:100F8000588B7412F090588C7401F090588E740144
:100F9000F090588F7411F09058907419F090589107
:100FA0007497F07F521214F69058947458F0905839
:100FB00095E4F090589A7405F090589B7402F09064
:100FC000589CE4F090589DE4F07F001219697FCDA1
:100FD0007E007D007C0090005D1204CA7D017F0AC6
:100FE0007E001208527D017F2C7E001209E77C17DB
:100FF0007DCD7F1D12130122900046EFF07BFF7A1A
:101000001B797AC003C002C0017B017A007947A82E
:1010100001AC02AD03D001D002D0037E007F0912E3
:1010200006277BFF7A1B7983C003C002C0017B01C6
:101030007A007950A801AC02AD03D001D002D003F0
:101040007E007F09120627900046E0FFEFD3940848
:10105000507E905802E0FFEF5480FFEFF09058026E
:10106000C083C082E0FF900046E0FE74502EF582FF
:10107000E43400F583E0FEEE25E025E0FEEE540CBE
:10108000FE900046E0FD74472DF582E43400F583C0
:10109000E0FDEE4DFEEF4EFFD082D083EFF0905892
:1010A00001E0FFEF54F3FFEFF0905801C083C082DE
:1010B000E0FF900046E0FE74502EF582E43400F527
:1010C00083E0FEEE440CFEEF4EFFD082D083EFF0C3
:1010D00022121A81900047EFF0900061E0FF90002B
:1010E00046EFF09043AAE0FFEF4401FFEFF090439A
:1010F000AAE0FFEF4410FFEFF09043BAE0FFEF44A7
:1011000001FFEFF09043BAE0FFEF4410FFEFF090E3
:1011100046F8E0FFEF4402FFEFF09046F9E0FFEF02
:101120004402FFEFF0905891E0FFEF4403FFEFF02F
:101130007F037E001217D09046F8E0FFEF54FDFFCA
:10114000EFF09046F9E0FFEF54FDFFEFF090587795
:10115000E0FFEF4406FFEFF0905882747AF090437E
:10116000A1E0FFEF4401FFEFF09043B1E0FFEF4457
:1011700001FFEFF09043A2E0FFEF4401FFEFF0909A
:1011800043B2E0FFEF4401FFEFF09044DB7420F046
:101190009044C37420F0900047E0FF1219D12290D0
:1011A00000617401F090005CE4F07F101218EC7F95
:1011B0001012190D7D077F1D1213E99058967407C0
:1011C000F0905897E4F090589EE4F0905B07E0FFB1
:1011D000EF4418FFEFF0905893E4F0905B88E4F050
:1011E000905B89E4F0905880740AF0905881E4F0A4
:1011F000905883E4F09058887412F09058897413D2
:10120000F090588DE4F0904E017414F090004B74FF
:1012100008F090004C7401F07B007A807DB67C8DE4
:101220007F0012064D900061E0FFEF75F003A424EB
:1012300058F582E43400F583E0FF904E0EEFF09015
:101240000061E0FFEF75F003A42456F582E434005A
:10125000F583E0FCA3E0FD7B027A4E790C121AD9EB
:10126000900061E0FF120F14227B0C7A0179CF12FB
:101270001AF2900045EFF0900045E0FFEF5407FFB1
:1012800090586EEFF0900045E0FFEFC4540FFFEF71
:10129000540FFF90586FEFF07B027A51790C7D026A
:1012A0007CA0121AD990512D7420F090586C7409BA
:1012B000F0905A007402F0905A047410F0905A089A
:1012C0007408F0905A837401F0905A907420F09052
:1012D0005AC37440F0905AC47410F0905B007408C4
:1012E000F0905B037440F0905B047480F07B027AB2
:1012F0005B79407D107C02121AD99058767444F0C4
:1013000022900047EFF0900048ECF0A3EDF0900041
:1013100047E0FFEFD3941F5003D38001C340057F04
:1013200000121A6C900047E0FFEF541FFF7E00EFA1
:1013300025E0FFEE33FEEF2400FFEE3444FEAA0664
:10134000A9077B01121ACA90004AEEF0A3EFF090B1
:101350000047E0FF7E02EF8EF0A4FFAEF0EF240026
:10136000FFEE3444FEAA06A9077B01900048E0FE88
:10137000A3E0FFAD07AC06121AD990004AE0FEA325
:10138000E0FF2290FFFC12051A1204CA850B838528
:101390000C821204B2D3EF9400EE9480402F9000A0
:1013A000731204B2121700850B83850C82C083C0B0
:1013B000821204B2EF2400FFEE3480FEED34FFFD14
:1013C000EC34FFFCD082D0831204CA80BF90006945
:1013D0001204B2850B83850C821204BE12035412D0
:1013E000170090000412051A22900046EFF09000BA
:1013F00047EDF0900047E0FFEFD394075003D38010
:1014000001C340057F00121A6C900046E0FFEFD345
:10141000941F5003D38001C340057F00121A6C90C3
:101420000047E0FFEF5407FF7E00EF75F020A4FFB8
:10143000AEF0900046E0FEEE541FFE74802EF58262
:10144000E43444F583EFF0229000457405F0121A5D
:101450002D12198412199E12194C7E147FA2121695
:10146000E0900045E0FFEFD3940040287FC8121AB7
:10147000A87FE87E037D007C001213837F00121A90
:10148000A87FE87E037D007C00121383900045E076
:1014900014F080CDD2AF9044F474FDF0121AE680BF
:1014A000FE22C0E0C0F0C083C082C085C084C08678
:1014B000758600C093759300C0D075D000C000C081
:1014C00001C002C003C004C005C006C00712154910
:1014D000121AA8D007D006D005D004D003D002D06D
:1014E00001D000D0D0D093D086D084D085D082D007
:1014F00083D0F0D0E032900047EFF0121A819000D4
:1015000048EFF09046F8E0FFEF4403FFEFF090461D
:10151000F9E0FFEF4403FFEFF0900047E0FF905841
:1015200092EFF07F037E001217D09046F8E0FFEFB5
:1015300054FCFFEFF09046F9E0FFEF54FCFFEFF0B2
:10154000900048E0FF1219D122904E14E0FFEF54B2
:1015500003FF900044EFF0904E10E0FF900043EF47
:10156000F0900044E0FFEFB40207904E11E0FF80DE
:101570000E900044E0FFEFB40305904E12E0FF90A0
:101580000067E0FFEF600590005CE4F0900043E04E
:10159000FF2241007C0041005C00410067004100E7
:1015A0006200410068004100610141007D0041008E
:1015B0007E0044006E016E360044006900005DC08C
:1015C00041006D184400732EE0000041007FFF438E
:1015D00000770000004100800000905828E0FFEFF5
:1015E000540CFF7E00EF7802CEC313CE13D8F9FF60
:1015F000EF2406FF900047EFF0900047E0FFE4FC87
:10160000FDFEEF2428FFEE3401FEED340CFDEC343A
:1016100000FCA907AA06AB05121AF290460AEFF0E1
:1016200022905820E0FFEF540CFF7E00EF7802CEAE
:10163000C313CE13D8F9FFEF2406FF900047EFF055
:10164000900047E0FFE4FCFDFEEF2420FFEE3401B4
:10165000FEED340CFDEC3400FCA907AA06AB051224
:101660001AF2904608EFF022C2D5E830E70FB2D563
:10167000E4C39BFBE49AFAE499F9E498F8EC30E7C8
:1016800017B2D512169E1203DFE4C39BFBE49AFA4D
:10169000E499F9E498F880031203DF30D50DE4C330
:1016A0009FFFE49EFEE49DFDE49CFC22900046EF3B
:1016B000F0905801E0FFEF54FCFF900047EFF090EE
:1016C0000047E0FF900046E0FEEE5403FEEF4EFFC1
:1016D000900047EFF0900047E0FF905801EFF022B4
:1016E000900046EEF0A3EFF0121B39900046E0FEAA
:1016F000A3E0FF12192E7F07121A17121B32223293
:10170000EC4D4E700D78FCEF24E950032840FD228B
:1017100000007BF178DA0000EF28FF78FFEE38FE5A
:10172000ED38FDEC38FC50E7EF2BFFEE38FEED38DE
:10173000FDEC38FC40F22205020304758600EF4EF2
:101740006027EF60010E75930090004FE0F595A3C0
:10175000E0F585A3E0F5848B938A838982E0A30575
:1017600086F0A31586DFF6DEF4E4F593F595229076
:101770000046EFF0905828E0FFEF54F3FFEFF090B1
:101780005828C083C082E0FF900046E0FEEE540C73
:10179000FEEF4EFFD082D083EFF01215DA229000D8
:1017A00046EFF0905820E0FFEF54F3FFEFF0905831
:1017B00020C083C082E0FF900046E0FEEE540CFEA5
:1017C000EF4EFFD082D083EFF01216212232323258
:1017D000EEFA90006DE0F88FF0A4FFAEF0E88AF02A
:1017E000A42EFEE5F03400FDEF24C9FF78FFEE38AB
:1017F000FEED38FDE438FC500302170022ACEAADE0
:10180000A08B938A838982E0F96017A3E0F5EAA3AD
:10181000E0F5A0A3E060F4FAA3E0F8A3E0F2DAF8C0
:10182000D9E98DA08CEAE4F59322900046EFF09080
:101830005828E0FFEF54FDFFEFF0905828C083C018
:1018400082E0FF900046E0FEEE5402FEEF4EFFD035
:1018500082D083EFF022900046EFF0905820E0FF16
:10186000EF54FDFFEFF0905820C083C082E0FF905E
:101870000046E0FEEE5402FEEF4EFFD082D083EF32
:10188000F022900048E4F0900048E0FFEFC394029B
:101890005010900048E0FF121B46900048E004F012
:1018A00080E590007F74FFF0229043A9E0FFEF44B1
:1018B00001FFEFF09043B9E0FFEF4401FFEFF0903C
:1018C0005877E0FFEF4480FFEFF022905800740C4F
:1018D000F0905801E0FFEF4420FFEFF0905802E451
:1018E000F07F00120FF87F011216AC22900046EF35
:1018F000F0904082C083C082E0FF900046E0FEEEA0
:1019000054F8FEEF4EFFD082D083EFF022900046D5
:10191000EFF0904102C083C082E0FF900046E0FEFD
:10192000EE54F8FEEF4EFFD082D083EFF02290000D
:1019300048EEF0A3EFF07B027A447900900048E093
:10194000FEA3E0FFAD07AC06121AD922900062E0B8
:10195000FFEF7011900068E0FFEF700312119F908D
:1019600000627401F01210D122900047EFF01218BB
:1019700082900047E0FF121B40900047E0FF90007C
:101980007FEFF02290007DE0FFEF7009121A429085
:10199000007D7401F01219E97FBB121AA822900091
:1019A0007EE0FFEF7009121A5790007E7401F0126A
:1019B0001A007FBB121AB822EC4D6011ED60010CC9
:1019C0008B938A838982E4F0A3DDFCDCFA759300B3
:1019D00022EF54016004D2AF8002C2AFEF5402FF85
:1019E0009044F4E054FD4FF0229043A8E0FFEF4410
:1019F00004FFEFF09043B8E0FFEF4404FFEFF02264
:101A00009043A8E0FFEF4401FFEFF09043B8E0FF00
:101A1000EF4401FFEFF022900048EFF0900048E023
:101A2000FFEFC43354E0FF904480EFF02290007C3D
:101A3000E0FFEF70091218CB90007C7401F01218CF
:101A4000A922905828E4F0905829E4F07F04121756
:101A50006F7F0012182A22905820E4F0905821E459
:101A6000F07F0412179E7F001218562290FFFF127B
:101A7000051AEFF09046EA7401F090000112051A81
:101A8000229044F4E0F84402F0E85402FF10AF0161
:101A90002274014FFF2290004AEFF090004AE0FFCD
:101AA00090004AEFF080FE22900046EFF090004652
:101AB000E0FF905B82EFF022900046EFF09000464E
:101AC000E0FF905B80EFF0228B938A838982E0FFB6
:101AD000A3E0FE759300228B938A838982EDF0A3A5
:101AE000ECF075930022904E00E0FFEF4401FFEF11
:101AF000F0228B938A838982E0759300FF228B9377
:101B00008A838982EDF0759300227B027A40798086
:101B1000121ACA22904082E0FFEF5407FF227B0294
:101B20007A417900121ACA22904102E0FFEF54076D
:101B3000FF229044C07401F0229044C87401F02246
:101B4000900048EFF022900049EFF022320051104F
:101B5000001000513000400051C000100051F00052
:101B600010010000100001140008000140000A00EC
:101B7000014C00020001500000200111213141619F
:0C1B800053637308090101050707040402
:00000001FF
